{
  "contractName": "BlockCi",
  "abi": [
    {
      "anonymous": false,
      "inputs": [
        {
          "indexed": false,
          "internalType": "uint256",
          "name": "campaignId",
          "type": "uint256"
        }
      ],
      "name": "CampaignClosed",
      "type": "event"
    },
    {
      "anonymous": false,
      "inputs": [
        {
          "indexed": false,
          "internalType": "uint256",
          "name": "campaignId",
          "type": "uint256"
        },
        {
          "indexed": false,
          "internalType": "address",
          "name": "organizer",
          "type": "address"
        },
        {
          "indexed": false,
          "internalType": "string",
          "name": "title",
          "type": "string"
        },
        {
          "indexed": false,
          "internalType": "uint256",
          "name": "goalAmount",
          "type": "uint256"
        }
      ],
      "name": "CampaignCreated",
      "type": "event"
    },
    {
      "anonymous": false,
      "inputs": [
        {
          "indexed": false,
          "internalType": "uint256",
          "name": "campaignId",
          "type": "uint256"
        },
        {
          "indexed": false,
          "internalType": "address",
          "name": "donor",
          "type": "address"
        },
        {
          "indexed": false,
          "internalType": "uint256",
          "name": "amount",
          "type": "uint256"
        }
      ],
      "name": "DonationMade",
      "type": "event"
    },
    {
      "anonymous": false,
      "inputs": [
        {
          "indexed": false,
          "internalType": "uint256",
          "name": "campaignId",
          "type": "uint256"
        },
        {
          "indexed": false,
          "internalType": "address",
          "name": "voter",
          "type": "address"
        },
        {
          "indexed": false,
          "internalType": "bool",
          "name": "inFavor",
          "type": "bool"
        }
      ],
      "name": "VoteCasted",
      "type": "event"
    },
    {
      "inputs": [
        {
          "internalType": "uint256",
          "name": "",
          "type": "uint256"
        }
      ],
      "name": "campaigns",
      "outputs": [
        {
          "internalType": "address",
          "name": "organizer",
          "type": "address"
        },
        {
          "internalType": "string",
          "name": "title",
          "type": "string"
        },
        {
          "internalType": "uint256",
          "name": "goalAmount",
          "type": "uint256"
        },
        {
          "internalType": "uint256",
          "name": "totalDonations",
          "type": "uint256"
        },
        {
          "internalType": "uint256",
          "name": "startDate",
          "type": "uint256"
        },
        {
          "internalType": "uint256",
          "name": "endDate",
          "type": "uint256"
        },
        {
          "internalType": "uint256",
          "name": "currentMilestone",
          "type": "uint256"
        },
        {
          "internalType": "bool",
          "name": "isClosed",
          "type": "bool"
        },
        {
          "internalType": "bool",
          "name": "initialReleaseDone",
          "type": "bool"
        }
      ],
      "stateMutability": "view",
      "type": "function"
    },
    {
      "inputs": [
        {
          "internalType": "uint256",
          "name": "",
          "type": "uint256"
        },
        {
          "internalType": "uint256",
          "name": "",
          "type": "uint256"
        }
      ],
      "name": "votes",
      "outputs": [
        {
          "internalType": "address",
          "name": "voter",
          "type": "address"
        },
        {
          "internalType": "bool",
          "name": "inFavor",
          "type": "bool"
        }
      ],
      "stateMutability": "view",
      "type": "function"
    },
    {
      "inputs": [
        {
          "internalType": "string",
          "name": "title",
          "type": "string"
        },
        {
          "internalType": "uint256",
          "name": "goalAmount",
          "type": "uint256"
        },
        {
          "internalType": "uint256",
          "name": "endDate",
          "type": "uint256"
        },
        {
          "internalType": "uint256[]",
          "name": "milestones",
          "type": "uint256[]"
        }
      ],
      "name": "createCampaign",
      "outputs": [],
      "stateMutability": "nonpayable",
      "type": "function"
    },
    {
      "inputs": [
        {
          "internalType": "uint256",
          "name": "campaignId",
          "type": "uint256"
        }
      ],
      "name": "makeDonation",
      "outputs": [],
      "stateMutability": "payable",
      "type": "function"
    },
    {
      "inputs": [
        {
          "internalType": "uint256",
          "name": "campaignId",
          "type": "uint256"
        },
        {
          "internalType": "bool",
          "name": "inFavor",
          "type": "bool"
        }
      ],
      "name": "castVote",
      "outputs": [],
      "stateMutability": "nonpayable",
      "type": "function"
    },
    {
      "inputs": [
        {
          "internalType": "uint256",
          "name": "campaignId",
          "type": "uint256"
        }
      ],
      "name": "closeCampaign",
      "outputs": [],
      "stateMutability": "nonpayable",
      "type": "function"
    }
  ],
  "bytecode": "0x608060405234801561001057600080fd5b506112d6806100206000396000f3fe6080604052600436106100555760003560e01c8063141961bc1461005a57806315373e3d14610160578063b0e1c1e1146101a7578063b219f916146101e2578063c6e36a3214610210578063e488242e14610288575b600080fd5b34801561006657600080fd5b506100936004803603602081101561007d57600080fd5b81019080803590602001909291905050506103f8565b604051808a73ffffffffffffffffffffffffffffffffffffffff168152602001806020018981526020018881526020018781526020018681526020018581526020018415158152602001831515815260200182810382528a818151815260200191508051906020019080838360005b8381101561011d578082015181840152602081019050610102565b50505050905090810190601f16801561014a5780820380516001836020036101000a031916815260200191505b509a505050505050505050505060405180910390f35b34801561016c57600080fd5b506101a56004803603604081101561018357600080fd5b8101908080359060200190929190803515159060200190929190505050610525565b005b3480156101b357600080fd5b506101e0600480360360208110156101ca57600080fd5b8101908080359060200190929190505050610831565b005b61020e600480360360208110156101f857600080fd5b8101908080359060200190929190505050610ba0565b005b34801561021c57600080fd5b506102536004803603604081101561023357600080fd5b810190808035906020019092919080359060200190929190505050610e53565b604051808373ffffffffffffffffffffffffffffffffffffffff16815260200182151581526020019250505060405180910390f35b34801561029457600080fd5b506103f6600480360360808110156102ab57600080fd5b81019080803590602001906401000000008111156102c857600080fd5b8201836020820111156102da57600080fd5b803590602001918460018302840111640100000000831117156102fc57600080fd5b91908080601f016020809104026020016040519081016040528093929190818152602001838380828437600081840152601f19601f82011690508083019250505050505050919291929080359060200190929190803590602001909291908035906020019064010000000081111561037357600080fd5b82018360208201111561038557600080fd5b803590602001918460208302840111640100000000831117156103a757600080fd5b919080806020026020016040519081016040528093929190818152602001838360200280828437600081840152601f19601f820116905080830192505050505050509192919290505050610eba565b005b6000818154811061040557fe5b90600052602060002090600a02016000915090508060000160009054906101000a900473ffffffffffffffffffffffffffffffffffffffff1690806001018054600181600116156101000203166002900480601f0160208091040260200160405190810160405280929190818152602001828054600181600116156101000203166002900480156104d75780601f106104ac576101008083540402835291602001916104d7565b820191906000526020600020905b8154815290600101906020018083116104ba57829003601f168201915b5050505050908060020154908060030154908060040154908060050154908060070154908060080160009054906101000a900460ff16908060080160019054906101000a900460ff16905089565b816000818154811061053357fe5b90600052602060002090600a020160080160009054906101000a900460ff16156105c5576040517f08c379a00000000000000000000000000000000000000000000000000000000081526004018080602001828103825260128152602001807f43616d706169676e20697320636c6f736564000000000000000000000000000081525060200191505060405180910390fd5b60008084815481106105d357fe5b90600052602060002090600a020160090160003373ffffffffffffffffffffffffffffffffffffffff1673ffffffffffffffffffffffffffffffffffffffff1681526020019081526020016000205411610695576040517f08c379a00000000000000000000000000000000000000000000000000000000081526004018080602001828103825260148152602001807f4f6e6c7920646f6e6f72732063616e20766f746500000000000000000000000081525060200191505060405180910390fd5b6000600a4233604051602001808381526020018273ffffffffffffffffffffffffffffffffffffffff1660601b8152601401925050506040516020818303038152906040528051906020012060001c816106eb57fe5b06141561082c576106fa61115c565b60405180604001604052803373ffffffffffffffffffffffffffffffffffffffff168152602001841515815250905060016000858152602001908152602001600020819080600181540180825580915050600190039060005260206000200160009091909190915060008201518160000160006101000a81548173ffffffffffffffffffffffffffffffffffffffff021916908373ffffffffffffffffffffffffffffffffffffffff16021790555060208201518160000160146101000a81548160ff02191690831515021790555050507f5aaa9aad7433112662b9e5ae23b96ed62b00035f413ab908c55607284e0804e2843385604051808481526020018373ffffffffffffffffffffffffffffffffffffffff1681526020018215158152602001935050505060405180910390a1505b505050565b806000818154811061083f57fe5b90600052602060002090600a020160080160009054906101000a900460ff16156108d1576040517f08c379a00000000000000000000000000000000000000000000000000000000081526004018080602001828103825260128152602001807f43616d706169676e20697320636c6f736564000000000000000000000000000081525060200191505060405180910390fd5b60008083815481106108df57fe5b90600052602060002090600a020190508060000160009054906101000a900473ffffffffffffffffffffffffffffffffffffffff1673ffffffffffffffffffffffffffffffffffffffff163373ffffffffffffffffffffffffffffffffffffffff1614610997576040517f08c379a000000000000000000000000000000000000000000000000000000000815260040180806020018281038252602981526020018061122c6029913960400191505060405180910390fd5b60008060005b6001600087815260200190815260200160002080549050811015610a1c576001600087815260200190815260200160002081815481106109d957fe5b9060005260206000200160000160149054906101000a900460ff1615610a06578280600101935050610a0f565b81806001019250505b808060010191505061099d565b5080821115610b395760006064601960018660070154876006018054905003030260640385600201540281610a4d57fe5b0490508360000160009054906101000a900473ffffffffffffffffffffffffffffffffffffffff1673ffffffffffffffffffffffffffffffffffffffff166108fc829081150290604051600060405180830381858888f19350505050158015610aba573d6000803e3d6000fd5b508360070160008154809291906001019190505550836006018054905084600701541415610b375760018460080160006101000a81548160ff0219169083151502179055507f5e6eb33a418de5dbbc17f989f7ae362cdfbb1748c5d603137c767027a354edbc866040518082815260200191505060405180910390a15b505b82600501544210610b995760018360080160006101000a81548160ff0219169083151502179055507f5e6eb33a418de5dbbc17f989f7ae362cdfbb1748c5d603137c767027a354edbc856040518082815260200191505060405180910390a15b5050505050565b8060008181548110610bae57fe5b90600052602060002090600a020160080160009054906101000a900460ff1615610c40576040517f08c379a00000000000000000000000000000000000000000000000000000000081526004018080602001828103825260128152602001807f43616d706169676e20697320636c6f736564000000000000000000000000000081525060200191505060405180910390fd5b60003411610c99576040517f08c379a00000000000000000000000000000000000000000000000000000000081526004018080602001828103825260268152602001806112556026913960400191505060405180910390fd5b6000808381548110610ca757fe5b90600052602060002090600a02019050348160090160003373ffffffffffffffffffffffffffffffffffffffff1673ffffffffffffffffffffffffffffffffffffffff168152602001908152602001600020600082825401925050819055503481600301600082825401925050819055507fe555da28bdb778f65d22794d88927ebaeca03f7de9d1b7d39245bc8fb5ca078a833334604051808481526020018373ffffffffffffffffffffffffffffffffffffffff168152602001828152602001935050505060405180910390a16064601982600201540281610d8657fe5b04816003015410158015610da957508060080160019054906101000a900460ff16155b15610e4e5760006064601983600201540281610dc157fe5b0490508160000160009054906101000a900473ffffffffffffffffffffffffffffffffffffffff1673ffffffffffffffffffffffffffffffffffffffff166108fc829081150290604051600060405180830381858888f19350505050158015610e2e573d6000803e3d6000fd5b5060018260080160016101000a81548160ff021916908315150217905550505b505050565b60016020528160005260406000208181548110610e6c57fe5b90600052602060002001600091509150508060000160009054906101000a900473ffffffffffffffffffffffffffffffffffffffff16908060000160149054906101000a900460ff16905082565b600381511015610f15576040517f08c379a000000000000000000000000000000000000000000000000000000000815260040180806020018281038252602681526020018061127b6026913960400191505060405180910390fd5b428211610f8a576040517f08c379a000000000000000000000000000000000000000000000000000000000815260040180806020018281038252601e8152602001807f456e642064617465206d75737420626520696e2074686520667574757265000081525060200191505060405180910390fd5b6000808054905090506000600181600181540180825580915050039060005260206000209050506000808281548110610fbf57fe5b90600052602060002090600a02019050338160000160006101000a81548173ffffffffffffffffffffffffffffffffffffffff021916908373ffffffffffffffffffffffffffffffffffffffff1602179055508581600101908051906020019061102a92919061118e565b508481600201819055504281600401819055508381600501819055506000816007018190555060008160080160006101000a81548160ff02191690831515021790555060008160080160016101000a81548160ff0219169083151502179055507f825fb10f7650ed27414d6f86acdf7d5946927d9b25001f045f1a2435deec02fe82338888604051808581526020018473ffffffffffffffffffffffffffffffffffffffff16815260200180602001838152602001828103825284818151815260200191508051906020019080838360005b838110156111175780820151818401526020810190506110fc565b50505050905090810190601f1680156111445780820380516001836020036101000a031916815260200191505b509550505050505060405180910390a1505050505050565b6040518060400160405280600073ffffffffffffffffffffffffffffffffffffffff1681526020016000151581525090565b828054600181600116156101000203166002900490600052602060002090601f016020900481019282601f106111cf57805160ff19168380011785556111fd565b828001600101855582156111fd579182015b828111156111fc5782518255916020019190600101906111e1565b5b50905061120a919061120e565b5090565b5b8082111561122757600081600090555060010161120f565b509056fe4f6e6c7920746865206f7267616e697a65722063616e20636c6f7365207468652063616d706169676e446f6e6174696f6e20616d6f756e74206d7573742062652067726561746572207468616e20304174206c65617374207468726565206d696c6573746f6e657320617265207265717569726564a2646970667358221220533ff1bb4492d6e40ffc0a5a79c86a54e3ca29303ae6ef5a1e381f6a5587a8eb64736f6c63430007010033",
  "immutableReferences": {},
  "source": "// SPDX-License-Identifier: UNLICENSED\npragma solidity >=0.5.16;\n//pragma solidity ^0.8.0;\n\ncontract BlockCi {\n    struct Campaign {\n        address organizer;\n        string title;\n        uint goalAmount;\n        uint totalDonations;\n        uint startDate;\n        uint endDate;\n        uint[] milestones;\n        uint currentMilestone;\n        bool isClosed;\n        bool initialReleaseDone; // state variable to track whether the initial release has been done\n        mapping(address => uint) donations; // Mapping to track individual donor contributions\n    }\n\n    struct Vote {\n        address voter;\n        bool inFavor;\n    }\n\n    Campaign[] public campaigns;\n    mapping(uint => Vote[]) public votes;\n\n    event CampaignCreated(\n        uint campaignId,\n        address organizer,\n        string title,\n        uint goalAmount\n    );\n    event DonationMade(uint campaignId, address donor, uint amount);\n    event VoteCasted(uint campaignId, address voter, bool inFavor);\n    event CampaignClosed(uint campaignId);\n\n    modifier campaignOpen(uint campaignId) {\n        require(!campaigns[campaignId].isClosed, \"Campaign is closed\");\n        _;\n    }\n\n    function createCampaign(\n        string memory title,\n        uint goalAmount,\n        uint endDate,\n        uint[] memory milestones\n    ) external {\n        require(\n            milestones.length >= 3,\n            \"At least three milestones are required\"\n        );\n        require(endDate > block.timestamp, \"End date must be in the future\");\n\n        uint campaignId = campaigns.length;\n\n        // Initialize the campaign directly in storageorganizer = msg.sender;\n        campaigns.push();\n        Campaign storage newCampaign = campaigns[campaignId];\n        newCampaign.organizer = msg.sender;\n        newCampaign.title = title;\n        newCampaign.goalAmount = goalAmount;\n        newCampaign.startDate = block.timestamp;\n        newCampaign.endDate = endDate;\n        newCampaign.currentMilestone = 0;\n        newCampaign.isClosed = false;\n        \n        newCampaign.initialReleaseDone = false; // Initialize initialReleaseDone to false\n\n        emit CampaignCreated(campaignId, msg.sender, title, goalAmount);\n    }\n\n    function makeDonation(\n        uint campaignId\n    ) external payable campaignOpen(campaignId) {\n        require(msg.value > 0, \"Donation amount must be greater than 0\");\n\n        Campaign storage campaign = campaigns[campaignId];\n        campaign.donations[msg.sender] += msg.value;\n        campaign.totalDonations += msg.value;\n\n        emit DonationMade(campaignId, msg.sender, msg.value);\n\n        // Check if the total donations have reached or exceeded 25% of the goal amount and initial release has not been done\n        if (\n            campaign.totalDonations >= (campaign.goalAmount * 25) / 100 &&\n            !campaign.initialReleaseDone\n        ) {\n            // Release 25% of the goal amount as initial capital\n            uint initialRelease = (campaign.goalAmount * 25) / 100;\n            payable(campaign.organizer).transfer(initialRelease);\n\n            // Mark initial release as done\n            campaign.initialReleaseDone = true;\n        }\n    }\n\n    function castVote(\n        uint campaignId,\n        bool inFavor\n    ) external campaignOpen(campaignId) {\n        require(\n            campaigns[campaignId].donations[msg.sender] > 0,\n            \"Only donors can vote\"\n        );\n\n        // Randomly select 10% of donors to vote\n        if (\n            uint256(keccak256(abi.encodePacked(block.timestamp, msg.sender))) %\n                10 ==\n            0\n        ) {\n            Vote memory newVote = Vote({voter: msg.sender, inFavor: inFavor});\n\n            votes[campaignId].push(newVote);\n\n            emit VoteCasted(campaignId, msg.sender, inFavor);\n        }\n    }\n\n    function closeCampaign(uint campaignId) external campaignOpen(campaignId) {\n        Campaign storage campaign = campaigns[campaignId];\n        require(\n            msg.sender == campaign.organizer,\n            \"Only the organizer can close the campaign\"\n        );\n\n        uint inFavorCount;\n        uint againstCount;\n\n        // Count the votes\n        for (uint i = 0; i < votes[campaignId].length; i++) {\n            if (votes[campaignId][i].inFavor) {\n                inFavorCount++;\n            } else {\n                againstCount++;\n            }\n        }\n\n        // If the majority is in favor, release funds for the current milestone\n        if (inFavorCount > againstCount) {\n            // Release funds for the current milestone based on milestones\n            uint releaseAmount = (campaign.goalAmount *\n                (100 -\n                    ((campaign.milestones.length -\n                        campaign.currentMilestone -\n                        1) * 25))) / 100;\n            payable(campaign.organizer).transfer(releaseAmount);\n            campaign.currentMilestone++;\n\n            // If all milestones are completed, close the campaign\n            if (campaign.currentMilestone == campaign.milestones.length) {\n                campaign.isClosed = true;\n                emit CampaignClosed(campaignId);\n            }\n        }\n\n        // If end date is reached, close the campaign\n        if (block.timestamp >= campaign.endDate) {\n            campaign.isClosed = true;\n            emit CampaignClosed(campaignId);\n        }\n    }\n}\n",
  "sourcePath": "D:\\Humaira\\WORK\\BSCS\\FYP-BlockCI\\BlockCi web\\src\\contracts\\BlockCi.sol",
  "compiler": {
    "name": "solc",
    "version": "0.7.1+commit.f4a555be.Emscripten.clang"
  },
  "schemaVersion": "3.4.16",
  "updatedAt": "2024-05-15T07:51:48.204Z",
  "devdoc": {
    "kind": "dev",
    "methods": {},
    "version": 1
  },
  "userdoc": {
    "kind": "user",
    "methods": {},
    "version": 1
  }
}